:020000000C945E
:10000200BE000C9400000C9400000C9400000C94B0
:1000120000000C9400000C9400000C9400000C945E
:1000220000000C9400000C9400000C9400000C944E
:1000320000000C9400000C9400000C9400000C943E
:1000420000000C9400000C94F6000C9400000C9438
:1000520000000C9400000C9400000C9400000C941E
:1000620000000C9400000C9400000C9400000C940E
:1000720000000C9400000C940000C0F9A4B0999206
:1000820082F88090000000000000000000000000E4
:10009200000008000100000000000800010000004C
:1000A200000008000100000000000800010000003C
:1000B2000000080001000000000000100000100015
:1000C200020000000000100002000000000010000A
:1000D20002000000000010000200000000001000FA
:1000E20002000000000000100100000000010000FA
:1000F20000000000000200000000000000030000F9
:1001020000000000000400000000000000050300E1
:1001120000000000001002000000000000000000CB
:10012200000000100300000102030002300260021E
:1001320090020100002060E0010203000B000300B6
:1001420086002C00000292002D003002BE002D001D
:100152006002EC000D0090021A010400A0022801C6
:100162000800A4022C010100AC0234010400C00208
:1001720036010300C4023A010000F894EE27EFBBF7
:10018200F1E0F5BFE5BFF8E1A895A4B7A77FA4BF4A
:10019200F0936000E09360008DE0A2E0BB27ED9356
:1001A2008A95E9F780E094E0A0E0B1E0ED93019751
:1001B200E9F7EEE3F1E085919591009761F0A59161
:1001C200B59105901590BF01F00105900D92019730
:1001D200E1F7FB01F0CFE0E0EEBBEFEFEDBFE4E0D3
:1001E200EEBFC0E0D2E00C941B010A921A92FA927E
:1001F2006A937A938A939A93AA93BA93EA93FA9315
:10020200EFB7EA93ECE3E6BD52D1EBB180D2E093D3
:10021200BE02D3D179D08CD0E991EFBFF991E991A7
:10022200B991A9919991899179916991F9901990CE
:1002320009901895E0E8E0936100E0E0E093610046
:10024200E0E8E1B9EFEFE2B9E4B9E5B9E7B9E8B955
:10025200EFE3EAB9EBB9E0E0E4BDE5E0E5BDECE3EC
:10026200E6BDE0E0E7BDE8BDE0938000E0938100F9
:10027200E0938500E0938400E0938700E09386009A
:10028200E0938900E0938800E0938B00E0938A007A
:10029200E093B600E093B000E093B100E093B200C7
:1002A200E093B300E093B400E1E0E0936E00E0E09D
:1002B200E0936F00E0937000E0936900EDBBE09380
:1002C2006800E093C100E093C900E0E8E0BFE0E02D
:1002D200E0937B00E0937F00E0937A00ECBDE09333
:1002E200BC00789403D06BD0FECFFFCFE0E0E09368
:1002F200AF029E2E4E2EE093AE02E093AD02EFEFE0
:10030200E8B9EBB9E5B90895EB2DF0E0309729F49F
:10031200EE24E1E0CE2EBE2E0AC0E130A0E0FA07C4
:1003220031F4E394CC24E1E3EE1509F4BB240895FF
:10033200E0B1EE77F0E0F595E795E093BF02E92DA5
:10034200F0E03097D1F4CC20B9F0E091C802EF5F31
:10035200E093C802E091AC02E03031F0E0B1D7D1D5
:10036200DE2EE0E0E093AC02A091C802A13011F4CD
:10037200E1E001C0E0E09E2E21C0E130A0E0FA07FA
:10038200E9F4EC2DE095E030C9F0AED0DD2049F47F
:10039200E091AD02C3D1ED91FD913196FE93EE93C2
:1003A20009C0E091B802F091B9023196E093B80227
:1003B200F093B9029924E0E0E093C80208951A93F9
:1003C2000A93ED2DF0E0309729F0E091B802F09118
:1003D200B90205C0E091AE02A1D10E94F4038F01DF
:1003E200D801E8EEF3E00E94D303E093BA02D80109
:1003F200E8EEF3E00E94D8038F01E4E0EA93A091D3
:10040200BA022DD0D801E4E6F0E00E94D303E093D3
:10041200BB02D801E4E6F0E00E94D8038F01E3E0DA
:10042200EA93A091BB021BD0D801EAE0F0E00E945F
:10043200D303E093BC02E2E0EA93A091BC020FD0A6
:10044200D801EAE0F0E00E94D803E093BD02E1E0C7
:10045200EA93A091BD0203D0099119910895AA933C
:100462001A93EA81F0E0E430A0E0FA0711F418E010
:1004720011C0E330A0E0FA0711F414E00BC0E2303F
:10048200A0E0FA0711F412E005C0E130A0E0FA079B
:1004920009F411E0EBB1E07FEBB91BB9E981F0E0BF
:1004A200E458FF4F049008B8188123960895739476
:1004B200A71409F0089577248394ECE3E81509F072
:1004C200089588245394ECE3E51509F00895552422
:1004D2006394E8E1E61509F0089566243394E7E0B1
:1004E200E31509F4332408952897E0E0E883E983CB
:1004F200EA83EB830E940304A32DB0E0E8E10E94AB
:10050200A403BF01A62DB0E0E0E10E94A403E62B04
:10051200F72BDF01F52DE0E0EA2BFB2BDF01E82DC5
:10052200F0E0EA2BFB2B0E94BB03EA87FB876C8778
:100532007D87E091AD02A4EAB2E0F0E0EE0FFF1F8A
:10054200AE0FBF1F0E94F4038F0130E040E050E085
:10055200303011F5EBD0AA85BB858C859D850E9434
:10056200FE0361F4FA013196D8010E94AD03AE0F89
:10057200BF1FEC91E093AD0231E00DC0D7D0E53062
:10058200A0E0FA07A0E06A07A0E07A0711F431E0E0
:1005920002C04E5F5F4FDCCFE091AD02F0E0E0566B
:1005A200FD4FE081FF2766277727EE83FF83688769
:1005B20079870E940A042E9608951DD001D00895CD
:1005C2001A93E091BF02E03019F41091C00210C0FA
:1005D200A091BF02A33018F41091C10209C0A091EA
:1005E200BF02A63018F41091C20202C01091C302D9
:1005F200E5B1EF7186C01A93E1E0ED1529F4E5B19A
:10060200E07EE5B92C9A81C0E091AF02F0E030972C
:1006120041F4E091BE02E03019F4E1E0E093AF0270
:100622005EC0E130A0E0FA0759F4E091BE02E0308A
:1006320031F0E2E0E093AF02E1E0E093AE024FC0BE
:10064200E230A0E0FA0741F4E091BE02E03019F492
:10065200E3E0E093AF0243C0E330A0E0FA0759F4CD
:10066200E091BE02E03031F0E4E0E093AF02E2E07C
:10067200E093AE0234C0E430A0E0FA0741F4E09126
:10068200BE02E03019F4E5E0E093AF0228C0E530A5
:10069200A0E0FA0759F4E091BE02E03031F0E6E062
:1006A200E093AF02E3E0E093AE0219C0E630A0E0CF
:1006B200FA0741F4E091BE02E03019F4E7E0E0937A
:1006C200AF020DC0E730A0E0FA0749F4E091BE02A4
:1006D200E03029F0E0E0E093AF02E093AE02E09177
:1006E200AE02F0E0EC53FD4FA081E091AD02F0E0EC
:1006F200EC53FD4FE081EE0FEE0FEA2B1E2FE5B11A
:10070200E07EE5B9E5B1E12BE5B919910895E0780C
:10071200F0E00E94B4030E94B2030895A0EBB2E09D
:10072200F0E0EE0FFF1FAE0FBF1F0895FA01D801D0
:100732000E94AD03AE0FBF1F0E94F8030895F1950A
:10074200E195F0400895EE230E2EFD0121F0EE0F0B
:10075200FF1F0A94E1F70895EE0FFF1FEE0FFF1F30
:100762000895F595E795F595E795F595E795F5954E
:10077200E79508956F2F660F660B762F0895002474
:10078200112490E1AA0FBB1F001C111C0E1A1F0A94
:1007920018F40E0E1F1E01C0A1609A9599F7FD0173
:1007A200D001089512D0EBDF0EF4C9DF0895E8946A
:1007B200B7FF04C0A095B09511966894F7FDBFDF0E
:1007C200DEDFFD010EF4BBDF0895E894F7FF02C0FF
:1007D200B6DF6894B7FF06C0A095B095119600F8F1
:1007E200039400FA0895ED91FC9111970895ED910B
:1007F200FD916D917C9113970895EA17FB076807A5
:10080200790708955A934A933A932A931A930A932B
:1008120008955D814C813B812A8119810881089567
:00000001FF
