:020000000C945E
:10000200B7000C9400000C9400000C9400000C94B7
:1000120000000C9400000C9400000C9400000C945E
:1000220000000C9400000C9400000C9400000C944E
:1000320000000C9400000C9400000C9400000C943E
:1000420000000C9400000C94E6000C9400000C9448
:1000520000000C9400000C9400000C9400000C941E
:1000620000000C9400000C9400000C9400000C940E
:1000720000000C9400000C940000C0F9A4B0999206
:1000820082F88090000000000000000000000001E3
:10009200000008000100000000000800010000004C
:1000A200000008000100000000000800010000003C
:1000B2000000080001000000000000100000100015
:1000C200020000000000100002000000000010000A
:1000D20002000000000010000200000000001000FA
:1000E20002000000000000100100000000010000FA
:1000F20000000000000200000000000000030000F9
:1001020000000000000400000000000000050300E1
:1001120000000000001002000000000000000000CB
:10012200000000100300000102030002300260021E
:100132009002002060E0010203000C000300860030
:100142002C00000292002D003002BE002D00600241
:10015200EC000D0090021A010800A0022C0104001C
:10016200BA0234010300BE0238010000F894EE27FF
:10017200EFBBF1E0F5BFE5BF8DE0A2E0BB27ED9359
:100182008A95E9F780E094E0A0E0B1E0ED93019771
:10019200E9F7ECE3F1E085919591009761F0A59183
:1001A200B59105901590BF01F00105900D92019750
:1001B200E1F7FB01F0CFE0E0EEBBEFEFEDBFE4E0F3
:1001C200EEBFC0E0D2E00C940E010A921A92FA92AB
:1001D2006A937A938A939A93AA93BA93EA93FA9335
:1001E200EFB7EA93ECE3E6BD3AD1EBB1E072F0E0AF
:1001F200F595E79590D2E093B8029ED177D0E99138
:10020200EFBFF991E991B991A99199918991799168
:100212006991F990199009901895E0E8E0936100CE
:10022200E0E0E0936100E0E8E1B9EFEFE2B9E4B9C0
:10023200E5B9E7B9E8B9EFE3EAB9EBB9E0E0E4BD63
:10024200E5E0E5BDECE3E6BDE0E0E7BDE8BDE09357
:100252008000E0938100E0938500E0938400E093C6
:100262008700E0938600E0938900E0938800E093A2
:100272008B00E0938A00E093B600E093B000E09335
:10028200B100E093B200E093B300E093B400E1E088
:10029200E0936E00E0E0E0936F00E0937000E09383
:1002A2006900EDBBE0936800E093C100E093C900F0
:1002B200E0E8E0BFE0E0E0937B00E0937F00E093C2
:1002C2007A00ECBDE093BC00789403D05BD0FECF03
:1002D200FFCFE0E0E093A9029E2E4E2EE093A8020B
:1002E200DE2EEFEFE8B9EBB9E5B90895E0B1EE77AC
:1002F200F0E0F595E795E093B902E0B1E170CE2E1A
:10030200E92DF0E03097C9F4CC20B1F0E091C202BF
:10031200EF5FE093C202EE2039F0E0B1E078F0E066
:10032200FCD1F9D1BE2EEE24A091C202A13011F46B
:10033200E1E001C0E0E09E2E24C0E130A0E0FA0737
:1003420001F5EC2DE095E030E1F0A6D0BB2069F498
:100352009CD13196FE93EE9398D1DF01A1D121F485
:1003620094D13196FE93EE9308C09FD1A091B20230
:10037200B091B30295D109F498D19924E0E0E093C9
:10038200C20208951A930A93EB2DF0E0309729F0F8
:10039200E091B202F091B30207C0E091A802AAEA8A
:1003A200B2E08DD1ED91FD918F01D801E8EEF3E03D
:1003B200CED1E093B402D801E8EEF3E0CDD18F01C3
:1003C200E4E0EA93A091B40223D0D801E4E6F0E09D
:1003D200BED1E093B502D801E4E6F0E0BDD18F01D1
:1003E200E3E0EA93A091B50270D1B1D1E093B602F5
:1003F200E2E0EA93A091B60268D1AED1E093B702EF
:10040200E1E0EA93A091B70203D00991199108950E
:100412006DD10A2F3C811FEFE32FF0E0E430A0E022
:10042200FA0711F418E011C0E330A0E0FA0711F462
:1004320014E00BC0E230A0E0FA0711F412E005C0AC
:10044200E130A0E0FA0709F411E01BB9E02FF0E077
:10045200E458FF4F049008B850D12596089573943C
:10046200A71409F0089577248394ECE3E81509F0C2
:10047200089588245394ECE3E51509F00895552472
:100482006394E8E1E61509F0089566243394E7E001
:10049200E31509F4332408952897E0E0E883E9831B
:1004A200EA83EB8321D1E32DF0E0E62DF0E0E0E0FA
:1004B200F0E0DF01F52DE0E0EA2BFB2BDF01E82D78
:1004C200F0E0EA2BFB2B6F2F660F660B762FEA8785
:1004D200FB876C877D87ED2DA0EAB2E0F0D0ED912D
:1004E200FC9111978F0130E040E050E0303009F587
:1004F200F1D0AA85BB858C859D85EA17FB07680725
:10050200790749F4FA013196D80100D1AE0FBF1F25
:100512004C9031E00DC0DED0E530A0E0FA07A0E05B
:100522006A07A0E07A0711F431E002C04E5F5F4F24
:10053200DDCFE1D02E9608951DD001D008951A93F3
:10054200E091B902E03019F41091BA0210C0A09102
:10055200B902A33018F41091BB0209C0A091B902EC
:10056200A63018F41091BC0202C01091BD02E5B190
:10057200EF7185C01A93E1E0EB1529F4E5B1E07E55
:10058200E5B92C9A80C0E091A902F0E0309741F4DD
:10059200E091B802E03019F4E1E0E093A9025EC014
:1005A200E130A0E0FA0759F4E091B802E03031F00E
:1005B200E2E0E093A902E1E0E093A8024FC0E2305A
:1005C200A0E0FA0741F4E091B802E03019F4E3E068
:1005D200E093A90243C0E330A0E0FA0759F4E091A6
:1005E200B802E03031F0E4E0E093A902E2E0E09307
:1005F200A80234C0E430A0E0FA0741F4E091B80266
:10060200E03019F4E5E0E093A90228C0E530A0E06B
:10061200FA0759F4E091B802E03031F0E6E0E093F5
:10062200A902E3E0E093A80219C0E630A0E0FA07CD
:1006320041F4E091B802E03019F4E7E0E093A90256
:100642000DC0E730A0E0FA0749F4E091B802E030CB
:1006520029F0E0E0E093A902E093A802E091A80269
:10066200F0E0E254FD4FA081ED2DF0E0E254FD4FA9
:10067200E081EE0FEE0FEA2B1E2FE5B1E07EE5B929
:10068200E5B1E12BE5B919910895ED2DAAEAB2E0A1
:10069200F0E0EE0FFF1FAE0FBF1FED91FD91089529
:1006A200E6E0F0E059D030970895E091B202F0917F
:1006B200B3023196E093B202F093B3020895F0E0F0
:1006C200EE0FFF1FAE0FBF1F0895A2DED801EAE0B2
:1006D200F0E00895FA01D80119D0AE0FBF1FED91D5
:1006E200FD916D917D9108955A934A933A932A937D
:1006F2001A930A9308955D814C813B812A81198165
:1007020008810895F195E195F0400895EE0FFF1FDD
:10071200EE0FFF1F0895F595E795F595E795F59589
:10072200E795F595E79508950024112490E1AA0F25
:10073200BB1F001C111C0E1A1F0A18F40E0E1F1EDE
:1007420001C0A1609A9599F7FD01D001089512D0D8
:10075200EBDF0EF4D7DF0895E894B7FF04C0B1953C
:10076200A195B0406894F7FDCDDFDEDFFD010EF408
:10077200C9DF0895E894F7FF02C0C4DF6894B7FFA9
:1007820006C0B195A195B04000F8039400FA08950F
:00000001FF
