:100000000C94B2000C9400000C9400000C940000BE
:100010000C9400000C9400000C9400000C94000060
:100020000C9400000C9400000C9400000C94000050
:100030000C9400000C9400000C9400000C94000040
:100040000C9400000C9400000C94E1000C9400004F
:100050000C9400000C9400000C9400000C94000020
:100060000C9400000C9400000C9400000C94000010
:100070000C9400000C9400000C940000C0F9A4B093
:10008000999282F8809000000000000001000000BA
:10009000080001000000000008000100000000004E
:1000A000080001000000000008000100000000003E
:1000B0000800010000000000001000001000020015
:1000C000000000001000020000000000100002000C
:1000D00000000000100002000000000010000200FC
:1000E00000000000001001000000000100000000FE
:1000F00000000002000000000000000300000000FB
:1001000000000004000000000000000503000000E3
:1001100000000010020000000000000000000000CD
:10012000001003000002300260029002150001027C
:1001300003000800030086002C0000028E002D0042
:100140003002BA002D006002E8000D009002160196
:100150000800A00224010100B8022C010300C8021B
:100160002E010000F894EE27EFBBF1E0F5BFE5BFEC
:100170008DE0A2E0BB27ED938A95E9F780E094E05B
:10018000A0E0B1E0ED930197E9F7E2E3F1E08591BA
:100190009591009761F0A591B59105901590BF01DB
:1001A000F00105900D920197E1F7FB01F0CFE0E03F
:1001B000EEBBEFEFEDBFE4E0EEBFC0E0D2E00C94A9
:1001C00017010A921A92FA926A937A938A939A93EF
:1001D000AA93BA93EA93FA93EFB7EA93ECE3E6BDF6
:1001E0003ED1E9B1E078F0E018D315D3E093C50231
:1001F000E0B1E873EE0FEE0FE093C602E5B1EF71E8
:10020000E5B9E5B1A091C602EA2BE5B905D2B0D1B6
:1002100076D0E991EFBFF991E991B991A9919991BE
:10022000899179916991F990199009901895E0E870
:10023000E0936100E0E0E0936100E0E8E1B9EFEF16
:10024000E2B9E4B9E5B9E7B9E8B9EFE3EAB9EBB97E
:10025000E0E0E4BDE5E0E5BDECE3E6BDE0E0E7BD00
:10026000E8BDE0938000E0938100E0938500E09397
:100270008400E0938700E0938600E0938900E09398
:100280008800E0938B00E0938A00E093B600E0934F
:10029000B000E093B100E093B200E093B300E093CC
:1002A000B400E1E0E0936E00E0E0E0936F00E093E3
:1002B0007000E0936900EDBBE0936800E093C1003B
:1002C000E093C900E0E8E0BFE0E0E0937B00E0936A
:1002D0007F00E0937A00ECBDE093BC00789403D0FB
:1002E00052D0FECFFFCFE0E07E2EEE2E5E2E4E2EC1
:1002F000BE2ECE2EEFEFE8B9EBB9E5B90895E0B127
:10030000E1708E2EE52DF0E03097C1F48820A9F041
:10031000E091CC02EF5FE093CC02992031F0E0B1A4
:10032000E270F0E0F595E795AE2EA091CC02A130F9
:1003300011F4E1E001C0E0E05E2E24C0E130A0E075
:10034000FA0701F58820F1F4992041F0E0B1E67058
:10035000F0E0F595E795E093C7029924AA2041F4CF
:10036000EC2DD9D1ED91FD913196FE93EE9306C01F
:10037000DAD13196E093C002F093C1025524E0E057
:10038000E093CC0208951A930A93EA2DF0E0309797
:1003900011F0C9D105C0EB2DBED1ED91FC911197A3
:1003A0008F01992071F5D801E8EEF3E050D2DE2EEE
:1003B000D801E8EEF3E050D28F01E4E0EA93AD2DEE
:1003C00023D0D801E4E6F0E042D2E093C202D801A3
:1003D000E4E6F0E041D28F01E3E0EA93A091C202AB
:1003E000A7D135D2E093C302E2E0EA93A091C30221
:1003F0009FD132D2E093C402E1E0EA93A091C4021B
:1004000003D0099119910895DAD10A2F3C81E32F85
:10041000F0E0E430A0E0FA0711F418E011C0E33096
:10042000A0E0FA0711F414E00BC0E230A0E0FA07F4
:1004300011F412E005C0E130A0E0FA0709F411E080
:10044000EBB1E07FEBB9EBB1E12BEBB9E02FF0E0E2
:10045000E458FF4F049008B8B9D125960895339415
:10046000631409F008953324E091B402F091B502C9
:100470006091B6027091B70260D1E093B402F0933C
:10048000B5026093B6027093B7025CD164D109F0F3
:100490000895E0E0E093B402E093B502E093B60281
:1004A000E093B702E091B002F091B1026091B20224
:1004B0007091B30242D1E093B002F093B102609325
:1004C000B2027093B3024FD146D109F00895E0E033
:1004D000E093B002E093B102E093B202E093B30282
:1004E0004BD12BD1E093AC02F093AD026093AE02FE
:1004F0007093AF02A091AC02B091AD028091AE02B8
:100500009091AF02A831E0E0BE07E0E08E07E0E0A6
:100510009E0709F00895E0E0E093AC02E093AD029D
:10052000E093AE02E093AF02E091A802F091A9023D
:100530006091AA027091AB0200D1E093A802F093FF
:10054000A9026093AA027093AB021FD1A730E0E02A
:10055000BE07E0E08E07E0E09E0749F4E0E0E093AC
:10056000A802E093A902E093AA02E093AB020895E7
:10057000249723D10AD1E8E132D1DF01CB01FCD0AD
:100580006E2F7F2FE0E0F0E009D17F936F93FF9310
:10059000EF93E9D0E8E023D1AF91BF918F919F9184
:1005A000FDD0D0D0FBD0EE83FF8368877987EC2D18
:1005B000A0EAB2E0F0E0EE0FFF1FAE0FBF1FED911B
:1005C000FC9111978F0130E040E050E0303009F5A8
:1005D000EAD0AE81BF8188859985EA17FB07680755
:1005E000790749F4FA013196D80110D1AE0FBF1F37
:1005F000CC9031E00DC0D7D0E030A0E0FA07A0E009
:100600006A07A0E17A0711F431E002C04E5F5F4F44
:10061000DDCFDAD02A9608951A93992009F079C08F
:10062000E1E0EA1529F4E5B1E07EE5B92C9A71C064
:10063000EE2DF0E0309739F4E091C502E03011F48E
:10064000E1E0EE2E52C0E130A0E0FA0749F4E0917B
:10065000C502E03021F0E2E0EE2EE1E0BE2E45C022
:10066000E230A0E0FA0739F4E091C502E03011F47D
:10067000E3E0EE2E3AC0E330A0E0FA0749F4E0915F
:10068000C502E03021F0E4E0EE2EE2E0BE2E2DC007
:10069000E430A0E0FA0739F4E091C502E03011F44B
:1006A000E5E0EE2E22C0E530A0E0FA0749F4E09143
:1006B000C502E03021F0E6E0EE2EE3E0BE2E15C0EC
:1006C000E630A0E0FA0739F4E091C502E03011F419
:1006D000E7E0EE2E0AC0E730A0E0FA0731F4E0913F
:1006E000C502E03011F0EE24BB24EB2DF0E0E8531E
:1006F000FD4FA081EC2DF0E0E853FD4FE081EE0FBF
:10070000EE0FEA2B1E2FE5B1E07EE5B9E5B1E12B56
:10071000E5B919910895A8EBB2E0F0E0EE0FFF1FE4
:10072000AE0FBF1F0895E091C002F091C10208957D
:100730006BDED801EAE0F0E00895EF5FFF4F6F4F06
:100740007F4F0895A091B402B091B5028091B60296
:100750009091B7020895AC33E0E0BE07E0E08E0769
:10076000E0E09E070895A091B002B091B10280919F
:10077000B2029091B3020895E091AC02F091AD0203
:100780006091AE027091AF020895A091A802B0915D
:10079000A9028091AA029091AB020895EA2BFB2B4B
:1007A000682B792B0895FA01D80130D0AE0FBF1F06
:1007B000ED91FD916D917D9108955A934A933A93ED
:1007C0002A931A930A9308955D814C813B812A8173
:1007D000198108810895F195E195F0400895EE237F
:1007E0000E2EE8E01E2EFD01BC0179F0011438F058
:1007F000762F6F2FFE2FE0E00118C1F70895EE0F5E
:10080000FF1F661F771F0A94D1F70895EE0FFF1F91
:10081000EE0FFF1F0895F595E795F595E795F5958A
:10082000E795F595E79508950024112490E1AA0F26
:10083000BB1F001C111C0E1A1F0A18F40E0E1F1EDF
:1008400001C0A1609A9599F7FD01D001089512D0D9
:10085000EBDF0EF4C0DF0895E894B7FF04C0B19554
:10086000A195B0406894F7FDB6DFDEDFFD010EF420
:10087000B2DF0895E894F7FF02C0ADDF6894B7FFD8
:1008800006C0B195A195B04000F8039400FA089510
:00000001FF
