:0A0000000C94AD000C9400000C9469
:10000A0000000C9400000C9400000C9400000C9466
:10001A0000000C9400000C9400000C9400000C9456
:10002A0000000C9400000C9400000C9400000C9446
:10003A0000000C9400000C9400000C9400000C9436
:10004A00E5000C9400000C9400000C9400000C9441
:10005A0000000C9400000C9400000C9400000C9416
:10006A0000000C9400000C9400000C9400000C9406
:10007A000000C0F9A4B0999282F8809000000000B4
:10008A000000080000000100000008000001010053
:10009A00000008000002010000000800000301003F
:1000AA000000080000040100000000000010100019
:1000BA000000020000001000000102000000100011
:1000CA0000020200000010000003020000001000FD
:1000DA0000040200000000000010010000000001FE
:1000EA000000000000000002000000000000000301
:1000FA0000000000000000040000000000000005ED
:10010A0003000000000000100200000000000000D0
:10011A000000000000100300000102030002300288
:10012A00600290020600030086002C0000028C0088
:10013A002D003002B8002D006002E6000D0090028A
:10014A0014010400A00222010800A40226010000F2
:10015A00F894EE27EFBBF1E0F5BFE5BFF8E1A8950B
:10016A00A4B7A77FA4BFF0936000E09360008DE07E
:10017A00A2E0BB27ED938A95E9F780E094E0A0E03E
:10018A00B1E0ED930197E9F7EEE2F1E085919591FF
:10019A00009761F0A591B59105901590BF01F00106
:1001AA0005900D920197E1F7FB01F0CFE0E0EEBB7D
:1001BA00EFEFEDBFE4E0EEBFC0E0D2E00C940D013A
:1001CA000A921A92FA926A937A938A939A93AA93C0
:1001DA00BA93EA93FA93EFB7EA93ECE3E6BDEBB18D
:1001EA00E072F0E0F595E7950E94A602E093B50269
:1001FA00A0D075D0E991EFBFF991E991B991A99190
:10020A009991899179916991F99019900990189524
:10021A00E0E8E0936100E0E0E0936100E0E8E1B942
:10022A00EFEFE2B9E4B9E5B9E7B9E8B9EFE3EAB95A
:10023A00EBB9E0E0E4BDE5E0E5BDECE3E6BDE0E016
:10024A00E7BDE8BDE0938000E0938100E09385007C
:10025A00E0938400E0938700E0938600E0938900AE
:10026A00E0938800E0938B00E0938A00E093B60065
:10027A00E093B000E093B100E093B200E093B300E2
:10028A00E093B400E1E0E0936E00E0E0E0936F00F9
:10029A00E0937000E0936900EDBBE0936800E0939F
:1002AA00C100E093C900E0E8E0BFE0E0E0937B0032
:1002BA00E0937F00E0937A00ECBDE093BC00789471
:1002CA0003D052D0FECFFFCFE0E0CE2EDE2E9E2E00
:1002DA004E2EEE2EEFEFE8B9EBB9E5B90895E92D08
:1002EA00F0E0309789F4BB2071F0E091B602EF5F3D
:1002FA00E093B6025F98A091B602A13011F4E1E052
:10030A0001C0E0E09E2E14C0E130A0E0FA0781F4BB
:10031A00EB2DE095E03061F0A0D0AE2DB0E0A45511
:10032A00BD4FEC91EF5FEC939924E0E0E093B602C5
:10033A000895EC2DF0E0309739F4E0E0E093B7024D
:10034A00E1E0BE2ECE2E0FC0E130A0E0FA0759F44C
:10035A00E091B702EF5FE093B702BB24A091B70226
:10036A00A13309F4CC2408951A93E1E0E093B5028D
:10037A00E03019F4E091B00205C0EE2DF0E0E4554A
:10038A00FD4FE0811E2FA12FB0E0E8EEF3E00E94BE
:10039A00C702E093B102A12FBB27E8EEF3E00E9467
:1003AA00CC021E2FE4E0EA93A091B10230D0A12F33
:1003BA00B0E0E4E6F0E00E94C702E093B202A12FA7
:1003CA00BB27E4E6F0E00E94CC021E2FE3E0EA93AA
:1003DA00A091B2021CD0A12FB0E0EAE0F0E00E94A6
:1003EA00C702E093B302E2E0EA93A091B3020FD00E
:1003FA00A12FBB27EAE0F0E00E94CC02E093B4020E
:10040A00E1E0EA93A091B40202D019910895AA9367
:10041A001A931FEFEA81F0E0E430A0E0FA0711F442
:10042A00187F11C0E330A0E0FA0711F4147F0BC063
:10043A00E230A0E0FA0711F4127F05C0E130A0E033
:10044A00FA0709F4117F1BB9E981F0E0E458FF4F7C
:10045A00049008B81881239608952297E0E0E8836B
:10046A00E9830E94F702A62DB0E0E8E10E94980213
:10047A00BF01A32DB0E0E0E10E949802E62BF72B22
:10048A00DF01F52DE0E0EA2BFB2BDF01E82DF0E0A0
:10049A00EA2BFB2B9F01EE2DA4EAB2E0F0E0EE0F6F
:1004AA00FF1FAE0FBF1F0E94E802AF0100E000303D
:1004BA0019F52BD0D9010E94AF020E94F20259F419
:1004CA00EE81FF813196DA010E94A102AE0FBF1FB1
:1004DA00EC9001E010C019D0E530A0E0FA07A0E0E6
:1004EA006A07A0E07A0711F401E005C0EE81FF81F6
:1004FA003296EE83FF83DBCFEE2DF0E0E056FD4F20
:10050A0010810E94FE0228960895EE81FF81DA0189
:10051A000E94A102AE0FBF1F0E94EC020895F1953E
:10052A00E195F0400895EE230E2EFD0121F0EE0F25
:10053A00FF1F0A94E1F70895EE0FFF1FEE0FFF1F4A
:10054A000895F595E795F595E795F595E795F59568
:10055A00E79508958B2F880F880B982F089500240C
:10056A00112490E1AA0FBB1F001C111C0E1A1F0AAE
:10057A0018F40E0E1F1E01C0A1609A9599F7FD018D
:10058A00D001089512D0EBDF0EF4C9DF0895E89484
:10059A00B7FF04C0A095B09511966894F7FDBFDF28
:1005AA00DEDFFD010EF4BBDF0895E894F7FF02C019
:1005BA00B6DF6894B7FF06C0A095B095119600F80B
:1005CA00039400FA0895ED91FC9111970895ED9125
:1005DA00FD916D917C9113970895EA17FB076807BF
:1005EA00790708955A934A933A932A931A930A9346
:1005FA0008955D814C813B812A8119810881089582
:00000001FF
