:100000000C94BE000C9400000C9400000C940000B2
:100010000C9400000C9400000C9400000C94000060
:100020000C9400000C9400000C9400000C94000050
:100030000C9400000C9400000C9400000C94000040
:100040000C9400000C9400000C94F6000C9400003A
:100050000C9400000C9400000C9400000C94000020
:100060000C9400000C9400000C9400000C94000010
:100070000C9400000C9400000C940000C0F9A4B093
:10008000999282F8809000000000000000000000BB
:10009000000000000800010000000000080001004E
:1000A000000000000800010000000000080001003E
:1000B0000000000008000100000000000010000027
:1000C000100002000000000010000200000000000C
:1000D00010000200000000001000020000000000FC
:1000E00010000200000000000010010000000001EC
:1000F00000000000000000020000000000000003FB
:1001000000000000000000040000000000000005E6
:1001100003000000000000100200000000000000CA
:100120000000000000100300000102030002300282
:10013000600290021500002060E0010203000C0044
:10014000030086002C00000292002D003002BE0049
:100150002D006002EC000D0090021A010400A002C4
:1001600028010800A4022C010100BC023401040093
:10017000CC0236010300D0023A010000F894EE27C9
:10018000EFBBF1E0F5BFE5BFF8E1A895A4B7A77F05
:10019000A4BFF0936000E09360008DE0A2E0BB2775
:1001A000ED938A95E9F780E094E0A0E0B1E0ED936B
:1001B0000197E9F7EEE3F1E085919591009761F001
:1001C000A591B59105901590BF01F00105900D9294
:1001D0000197E1F7FB01F0CFE0E0EEBBEFEFEDBF01
:1001E000E4E0EEBFC0E0D2E00C941E010A921A9245
:1001F000FA926A937A938A939A93AA93BA93EA9318
:10020000FA93EFB7EA93ECE3E6BDE9B1E078F0E00A
:100210000E948B030E948903E093C902AFD175D07D
:10022000E991EFBFF991E991B991A99199918991DA
:1002300079916991F990199009901895E0E8E09307
:100240006100E0E0E0936100E0E8E1B9EFEFE2B9DE
:10025000E4B9E5B9E7B9E8B9EFE0EAB9EFEFEBB92E
:10026000E0E0E4BDE5E0E5BDECE3E6BDE0E0E7BDF0
:10027000E8BDE0938000E0938100E0938500E09387
:100280008400E0938700E0938600E0938900E09388
:100290008800E0938B00E0938A00E093B600E0933F
:1002A000B000E093B100E093B200E093B300E093BC
:1002B000B400E1E0E0936E00E0E0E0936F00E093D3
:1002C0007000E0936900EDBBE0936800E093C1002B
:1002D000E093C900E0E8E0BFE0E0E0937B00E0935A
:1002E0007F00E0937A00ECBDE093BC00789403D0EB
:1002F00056D0FECFFFCFE0E08E2EBE2E5E2E4E2ECD
:10030000CE2E9E2EE1E07E2E0895E0B1EE7FF0E04D
:10031000F595E795E093CA02F093CB02E6E0F0E0B2
:10032000E093CA02F093CB02E52DF0E0309799F408
:10033000E0B1E170AE2EAA2069F0E091D402EF5F47
:10034000E093D402A091D402A13011F4E1E001C005
:10035000E0E05E2E23C0E130A0E0FA07F9F4E0B15E
:10036000E170AE2EEA2DE095E030C1F08FD077201D
:1003700041F4E92DA3D1ED91FD913196FE93EE93D9
:1003800009C0E091C402F091C5023196E093C40225
:10039000F093C5025524E0E0E093D40208951A9347
:1003A0000A93E72DF0E0309729F0E091C402F09134
:1003B000C50204C0EC2D82D10E94CB038F01D8016D
:1003C000E8EEF3E00E94AA03DE2ED801E8EEF3E0A7
:1003D0000E94AF038F01E4E0EA93AD2D2DD0D80148
:1003E000E4E6F0E00E94AA03E093C602D801E4E646
:1003F000F0E00E94AF038F01E3E0EA93A091C60210
:100400001BD0D801EAE0F0E00E94AA03E093C70203
:10041000E2E0EA93A091C7020FD0D801EAE0F0E051
:100420000E94AF03E093C802E1E0EA93A091C80202
:1004300003D0099119910895AA931A93EA81F0E0E3
:10044000E430A0E0FA0711F418E011C0E330A0E0B6
:10045000FA0711F414E00BC0E230A0E0FA0711F43F
:1004600012E005C0E130A0E0FA0709F411E0EBB1B9
:10047000E07FEBB9EBB1E12BEBB9E981F0E0E458B7
:10048000FF4F049008B818812396089524970E947E
:10049000DA03A091AC02B091AD028091AE029091CE
:1004A000AF02E8E10E947803DF01CB01E091B002E6
:1004B000F091B1026091B2027091B3020E94920376
:1004C0000E946F037F936F93FF93EF93A091B40209
:1004D000B091B5028091B6029091B702E8E00E9417
:1004E0007803AF91BF918F919F910E946F03A0916C
:1004F000B802B091B9028091BA029091BB020E94F9
:100500006F03EE83FF8368877987E92DA4EAB2E061
:10051000F0E0EE0FFF1FAE0FBF1F0E94CB039F0145
:1005200000E040E050E0003001F5D0D0AE81BF8166
:10053000888599850E94D50351F4FA013196D90135
:100540000E948403AE0FBF1F9C9001E00DC0BED07F
:10055000E030A0E0FA07A0E06A07A0E17A0711F412
:1005600001E002C04E5F5F4FDECFE92DF0E0E056C4
:10057000FD4F10810E94E1032A96089523D001D0F7
:1005800008951A93E091CA02F091CB02309719F4C2
:100590001091CC0214C0A091CA02B091CB02139763
:1005A0001CF41091CD020BC0A091CA02B091CB02F5
:1005B00016971CF41091CE0202C01091CF02E5B143
:1005C000EF7176C01A93E1E0E71529F4E5B1E07E1A
:1005D000E5B92C9A71C0EB2DF0E0309739F4E09139
:1005E000C902E03011F4E1E0BE2E52C0E130A0E0DB
:1005F000FA0749F4E091C902E03021F0E2E0BE2EB2
:10060000E1E0CE2E45C0E230A0E0FA0739F4E091F7
:10061000C902E03011F4E3E0BE2E3AC0E330A0E0BE
:10062000FA0749F4E091C902E03021F0E4E0BE2E7F
:10063000E2E0CE2E2DC0E430A0E0FA0739F4E091DC
:10064000C902E03011F4E5E0BE2E22C0E530A0E0A2
:10065000FA0749F4E091C902E03021F0E6E0BE2E4D
:10066000E3E0CE2E15C0E630A0E0FA0739F4E091C1
:10067000C902E03011F4E7E0BE2E0AC0E730A0E086
:10068000FA0731F4E091C902E03011F0BB24CC2428
:10069000EC2DF0E0E053FD4FA081E92DF0E0E053B8
:1006A000FD4FE081EE0FEE0FEA2B1E2FE5B1E07E4D
:1006B000E5B9E5B1E12BE5B919910895ACEBB2E0EC
:1006C000F0E0EE0FFF1FAE0FBF1F0895FA01D90132
:1006D0000E948403AE0FBF1F0E94CF030895EA2B30
:1006E000FB2B682B792B0895F195E195F040089547
:1006F000EE230E2EFD01BC0131F0EE0FFF1F661F31
:10070000771F0A94D1F70895EE0FFF1FEE0FFF1F1A
:100710000895F595E795F595E795F595E795F595A0
:10072000E79508956E2F7F2FE0E0F0E00895002414
:10073000112490E1AA0FBB1F001C111C0E1A1F0AE6
:1007400018F40E0E1F1E01C0A1609A9599F7FD01C5
:10075000D001089512D0EBDF0EF4C6DF0895E894BF
:10076000B7FF04C0A095B09511966894F7FDBCDF63
:10077000DEDFFD010EF4B8DF0895E894F7FF02C054
:10078000B3DF6894B7FF06C0A095B095119600F846
:10079000039400FA0895ED91FC9111970895ED915D
:1007A000FD916D917C9113970895EA17FB076807F7
:1007B000790708955A934A933A932A931A930A937E
:1007C00008955D814C813B812A81198108810895BA
:00000001FF
