:060000000C94BA000C9400
:1000060000000C9400000C9400000C9400000C946A
:1000160000000C9400000C9400000C9400000C945A
:1000260000000C9400000C9400000C9400000C944A
:1000360000000C9400000C9400000C9400000C943A
:1000460000000C94F2000C9400000C9400000C9438
:1000560000000C9400000C9400000C9400000C941A
:1000660000000C9400000C9400000C9400000C940A
:1000760000000C940000C0F9A4B0999282F8809018
:100086000000000000000000000000000800010061
:100096000000000008000100000000000800010048
:1000A6000000000000000100000000000800010040
:1000B6000000000000100000100002000000000018
:1000C6001000020000000000100002000000000006
:1000D60010000200000000001000020000000000F6
:1000E60000100100000000010000000000000002F6
:1000F60000000000000000030000000000000004F3
:1001060000000000000000050300000000000010D1
:1001160002000000000000000000000000100300C4
:1001260000010203000230026002900200103070EB
:10013600F000010203000900030086002C00000203
:1001460090002D003002BC002D006002EA000D0078
:10015600900218010400A00226010800A4022A0148
:100166000500C80232010300CD0238010000F894F0
:10017600EE27EFBBF1E0F5BFE5BFF8E1A895A4B720
:10018600A77FA4BFF0936000E09360008DE0A2E03B
:10019600BB27ED938A95E9F780E094E0A0E0B1E013
:1001A600ED930197E9F7ECE3F1E0859195910097DE
:1001B60061F0A591B59105901590BF01F0010590EC
:1001C6000D920197E1F7FB01F0CFE0E0EEBBEFEF18
:1001D600EDBFE4E0EEBFC0E0D2E00C941B010A9252
:1001E6001A92FA926A937A938A939A93AA93BA93F3
:1001F600EA93FA93EFB7EA93ECE3E6BDEBB1E0726C
:10020600F0E0F595E7950E94FE03E093C602ABD1B8
:10021600ADD076D0E991EFBFF991E991B991A99165
:100226009991899179916991F99019900990189508
:10023600E0E8E0936100E0E0E0936100E0E8E1B926
:10024600EFEFE2B9E4B9E5B9E7B9E8B9EFE2EAB93F
:10025600EBB9E0E0E4BDE5E0E5BDECE3E6BDE0E0FA
:10026600E7BDE8BDE0938000E0938100E093850060
:10027600E0938400E0938700E0938600E093890092
:10028600E0938800E0938B00E0938A00E093B60049
:10029600E093B000E093B100E093B200E093B300C6
:1002A600E093B400E1E0E0936E00E0E0E0936F00DD
:1002B600E0937000E0936900EDBBE0936800E09383
:1002C600C100E093C900E0E8E0BFE0E0E0937B0016
:1002D600E0937F00E0937A00ECBDE093BC00789455
:1002E60003D05FD0FECFFFCFE0E08E2ECE2E5E2E67
:1002F6004E2E9E2EAE2EEFEFE8B9EBB9E5B9089576
:10030600E6E0E093C702E52DF0E0309789F4772028
:1003160071F0E091D102EF5FE093D1025F98A09176
:10032600D102A13011F4E1E001C0E0E05E2E1DC073
:10033600E130A0E0FA07C9F4E72DE095E030A9F036
:100346009AD0EA2DAAD1ED91FD913196FE93EE93C6
:10035600E091C202F091C3023196E093C202F0939B
:10036600C3025524E0E0E093D1020895E82DF0E0C1
:10037600309739F4E0E0E093D202E1E07E2E8E2E53
:100386000FC0E130A0E0FA0759F4E091D202EF5F26
:10039600E093D2027724A091D202A13309F48824F3
:1003A60008951A93E92D79D1EC911E2FA12FB0E073
:1003B600E8EEF3E00E942504EE2EA12FBB27E8EE1F
:1003C600F3E00E942A041E2FE4E0EA93AE2D2DD01E
:1003D600A12FB0E0E4E6F0E00E942504DE2EA12F76
:1003E600BB27E4E6F0E00E942A041E2FE3E0EA932E
:1003F600AD2D1BD0A12FB0E0EAE0F0E00E9425046D
:10040600E093C402E2E0EA93A091C4020ED0A12FC9
:10041600BB27EAE0F0E00E942A04E093C502E1E08F
:10042600EA93A091C50201D036C1AA931A931FEF91
:10043600EA81F0E0E430A0E0FA0711F4187F11C079
:10044600E330A0E0FA0711F4147F0BC0E230A0E01D
:10045600FA0711F4127F05C0E130A0E0FA0709F4AB
:10046600117F1BB9E981F0E0E458FF4F049008B80A
:1004760018812396089524970E945504A091AC02F2
:10048600B091AD028091AE029091AF02E8E10E9478
:10049600ED03DF01CB01E091B002F091B102609172
:1004A600B2027091B3020E9407040E94DC037F939C
:1004B6006F93FF93EF93A091B402B091B502809130
:1004C600B6029091B702E8E00E94ED03AF91BF91AA
:1004D6008F919F910E94DC03A091B802B091B9025E
:1004E6008091BA029091BB020E94DC03EE83FF83E7
:1004F60068877987EA2DA4EAB2E0F0E0EE0FFF1FE5
:10050600AE0FBF1F0E9446049F0100E040E050E08E
:10051600003001F5CAD0AE81BF81888599850E94D9
:10052600500451F4FA013196D9010E94F903AE0F35
:10053600BF1FAC9001E00DC0B8D0E030A0E0FA07D4
:10054600A0E06A07A0E17A0711F401E002C04E5F5D
:100556005F4FDECFEA2DF0E0E056FD4F10810E949E
:100566005C042A96089530D001D008951A93E0913C
:10057600C702E03019F41091C8021FC09FD0E0E016
:10058600F0E060E270E40E94BC0318F41091C90226
:1005960014C0A091C702A53018F41091CA020DC06C
:1005A6008DD0E0E0F0E060EF70E40E94BC0318F448
:1005B6001091CB0202C01091CC02E5B1EF70E5B903
:1005C600E5B1E12BE5B967C01A93EC2DF0E0309761
:1005D60041F4E091C602E03011F4E1E0CE2E78D08D
:1005E6005AC0E130A0E0FA0751F4E091C602E030CB
:1005F60021F0E2E0CE2EE1E09E2E6AD04CC0E23041
:10060600A0E0FA0741F4E091C602E03011F4E3E01D
:10061600CE2E5ED040C0E330A0E0FA0751F4E09160
:10062600C602E03021F0E4E0CE2EE2E09E2E50D06D
:1006360032C0E430A0E0FA0741F4E091C602E030AF
:1006460011F4E5E0CE2E44D026C0E530A0E0FA074E
:1006560051F4E091C602E03021F0E6E0CE2EE3E070
:100666009E2E36D018C0E630A0E0FA0741F4E0919D
:10067600C602E03011F4E7E0CE2E2AD00CC0E730F7
:10068600A0E0FA0741F4E091C602E03019F0E8E094
:10069600CE2E99241DD019910895ACEBB2E0F0E06E
:1006A600EE0FFF1FAE0FBF1F0895FA01D9010E947A
:1006B600F903AE0FBF1F0E944A040895E091C702D6
:1006C600FF27662777270E948E03DF01CB01089557
:1006D600E92DF0E0E353FD4FA081EA2DF0E0E3536E
:1006E600FD4FE081EE0FEE0FEA2B1E2F089550E826
:1006F600572711F45F932BC05F3F31F0660F000C54
:1007060057956795752F08955F9300200AF02BC0C3
:1007160024C0689401C0E894309760407040B1F0FE
:10072600002426F0772312F400944CD0172E7EE195
:10073600112032F07A95EE0FFF1F661F111CF9CFBC
:10074600EF2FF62F612D5F93D2DF5F910895EE278D
:10075600FF27662777275F910895EFEFFFEF6FE793
:100766007FEF5F910895EFEFFFEF6FE77FE75F9110
:10077600089599239AF0772342F0971748F029F4C1
:10078600AE17BF07860720F031F098948894089535
:100796009894089408951894889408957723C2F736
:1007A600971798F3A9F7EA17FB07680788F399F3F1
:1007B600ECCFEA2BFB2B682B792B0895F195E1956D
:1007C600F0400895F09560957095E195FF4F6F4F55
:1007D6007F4F0895EE230E2EFD01BC0131F0EE0F82
:1007E600FF1F661F771F0A94D1F70895EE0FFF1FAC
:1007F600EE0FFF1F0895F595E795F595E795F595A5
:10080600E795F595E79508956E2F7F2FE0E0F0E0E8
:100816000895FE2FFF0FFF0B6F2F7F2F08950024E3
:10082600112490E1AA0FBB1F001C111C0E1A1F0AEF
:1008360018F40E0E1F1E01C0A1609A9599F7FD01CE
:10084600D001089512D0EBDF0EF4B8DF0895E894D6
:10085600B7FF04C0A095B09511966894F7FDAEDF7A
:10086600DEDFFD010EF4AADF0895E894F7FF02C06B
:10087600A5DF6894B7FF06C0A095B095119600F85D
:10088600039400FA0895ED91FC9111970895ED9166
:10089600FD916D917C9113970895EA17FB07680700
:1008A600790708955A934A933A932A931A930A9387
:1008B60008955D814C813B812A81198108810895C3
:00000001FF
