:100000000C945B000C9400000C9400000C94000015
:100010000C9400000C9400000C9400000C94000060
:100020000C9400000C9400000C9400000C94000050
:100030000C9400000C94F8000C9400000C94000048
:100040000C9400000C9400000C9400000C94000030
:100050000C9495000C9400000C94C5000C940000C6
:100060000C9400000C9400000C9400000C94000010
:100070000C9400000C9400000C9400001027E8037E
:1000800064000A00010000100001100001000D0AC8
:10009000537756657273696F6E3A25642E25640D29
:1000A0000A0001002D4E414E00494E46000001005D
:1000B0001002A2000000F894EE27EFBBF1E0F5BFBC
:1000C000E5BFF8E1A895A4B7A77FA4BFF0936000AF
:1000D000E09360008DE0A2E0BB27ED938A95E9F7FD
:1000E00080E094E0A0E0B1E0ED930197E9F7EEEA5B
:1000F000F0E085919591009761F0A591B5910590FB
:100100001590BF01F00105900D920197E1F7FB01F9
:10011000F0CFE0E0EEBBEABDEBBDEFEFEDBFE4E01A
:10012000EEBFC0E0D2E00C942801F8D21A930A93F3
:100130001091C0000091C600E12FEC7181F4E32D15
:100140003394F0E0E050FE4F0083E8E0E31509F45B
:1001500033245394E8E0E51511F45524F09A0991FD
:10016000199123C01A935520F1F3E22D2394F0E066
:10017000E050FE4F1081E8E0E21509F42224F894E3
:100180005A947894E12F19910895C8D2882069F083
:100190008A94E92D9394F0E0E85FFD4FE081E093CD
:1001A000C600E8E0E91509F49924E991EFBFF99157
:1001B000E9911895AA93E8E0E815E9F3F894882006
:1001C00021F4E091C000E07269F4E62D6394F0E060
:1001D000E85FFD4FA881A083E8E0E61509F46624F6
:1001E000839403C0E881E093C60078942196089533
:1001F0000A921A92FA926A937A938A939A93AA939A
:10020000BA93EA93FA93EFB7EA93A42DAF5FE2E3D0
:10021000DDD24E2E442029F45E9B02C05E9801C0C0
:100220005E9A5AD07E2EEFEFE71521F0A72D8BD0E6
:10023000A72D91D0E991EFBFF991E991B991A991D9
:100240009991899179916991F990199009901895EE
:1002500089D078945E9AA8955520C9F083DF1E2F27
:100260001F3391F4EEE8F0E0FA93EA93E1E0F0E076
:1002700060E070E0B6D2E3E0F0E060E070E0B1D2C0
:1002800088E010D22A9603C0A12FAF5F93DF4D996B
:1002900017C0AEE1B0E0AAD24D9912C04D9902C08C
:1002A000A895FCCFA0918900A13031F43CD2E0E0C8
:1002B000E0938900E1E602C036D23BD2E0938800A9
:1002C00000E0033038F45C9A87E08A95F1F75C9897
:1002D0000F5FF7CFC0CFFFCF2497EEEFE883EDEFAE
:1002E000E983EBEFEA83E7EFEB834ED23FEF10E0D9
:1002F00014302CF5E12FF0E0DE011496AE0FBF1F95
:10030000EC91E2B987E08A95F1F7E0B1E295EF7000
:100310000E2F0F3091F00E3009F400E00D3009F48B
:1003200001E00B3009F402E0073009F403E0E12FAB
:10033000EE0FEE0FE00F3E2F02C01F5FD9CFE32F6D
:100340002AD228960895FAD1EF70AE2FE12FE295C8
:10035000E07FEA2B03C0F2D1E07FE12BE8B91881FE
:1003600022960895E0E8E0936100E0E0E093610008
:10037000EFE0E1B9EFEFE2B9E0E0E5B9E4B9EFEFC2
:10038000E7B9E0E0E8B9E0E2EBB9E0E5EAB9E0E0DE
:10039000E4BDE5BDE6BDE7BDE8BDE0938000EDE06E
:1003A000E0938100C0D1E0E0E0938700E093860015
:1003B000C0D1E0938800E0E0E0938B00E0938A00F6
:1003C000E093B600E093B000E093B100E093B20098
:1003D000E093B300E093B400E0936900EDBBE093D9
:1003E0006800E0936E00E2E0E0936F00E0E0E093ED
:1003F0007000E093C000E8EDE093C100E6E0E09318
:10040000C200E0E0E093C500E1E8E093C400E0E072
:10041000E093C900E0E8E0BFE0E0E0937B00E09318
:100420007F00A895E8E1E0936000E8E0E0936000D9
:10043000E5B7E068E5BFE5B7E068E5BF0895BA93C2
:10044000AA93AA81B7DEA881B981ED91FD91319679
:10045000FE93EE9323960895BA93AA93269792D18A
:1004600010E0AC85BD85E0E0F0E0ED93FC93EA8917
:10047000FB893196EA8BFB8B3197E4912E2FE0308C
:1004800009F409C1E12FE03031F4253211F411E013
:1004900001C05BD1FFC0E130A1F4253211F455D188
:1004A000F8C012E040E000E02D3211F401E0F2C0AB
:1004B0002B3211F44BE2EEC0203211F440E2EAC0DC
:1004C00002C0E23039F450E013E0203311F4006848
:1004D000E1C003C0E33009F0DDC0203310F02A335F
:1004E00008F007C0AAE05A9F502DE22FE0535E0F9C
:1004F000D1C0E22FE33639F42FD1E889F989A481FC
:10050000AA9330D1C6C0E33729F426D131D1EDD03A
:100510001E2F07C0E03749F41FD12AD1F2D01E2F79
:10052000086002600F7730E038C0E43611F0E93639
:1005300011F4046002C0E53731F4ECE7F0E0EE833B
:10054000FF8315E00CC0E83511F4086003C0E837FC
:1005500009F09FC0E6E8F0E0EE83FF8314E002FFBD
:1005600015C0FAD0A889B9891496ED91FD91EA8752
:10057000FB87AB85AA2322F417D1EA87FB874DE2DC
:10058000403011F01F5F01C00B7F07C0E5D0A88984
:10059000B98914961ED1EA87FB8700FD10C0151794
:1005A00070F407FF08C002FF04C00B7F242F115016
:1005B00001C020E301C020E2C8D05150F0CF312F5C
:1005C00001FF16C0303099F003FF06C0EE81FF81B5
:1005D0002591EE83FF8305C0AE81BF812D91AE834F
:1005E000BF83B3D0503009F051503150EBCF48C0E9
:1005F00020E3EE81FF81F1D0E887F987EE81FF816A
:100600003296EE83FF83E885F985AA85BB85AE1710
:10061000BF0750F02F5FA885B985EA85FB85EA1BE7
:10062000FB0BEA87FB87EFCF2A3328F003FF02C0DA
:10063000295F01C0295D04FD19C0213320F4A8857C
:10064000B985119709F409C0531710F000FF01C0D4
:1006500011C020E207FF0AC020E3006102FF06C0CC
:100660000B7F4A937FD0503009F051506ED05030FC
:1006700009F051503150A885B985129708F0B8CFCC
:1006800000FF07C0503029F05150E0E2EA936AD0F1
:10069000F9CF10E0ECCEAC85BD85ED91FD9179D020
:1006A00064960895FF92F82E26971A930A93DE0116
:1006B000149676D08D01E0E0EC83ED83EE83EF833A
:1006C000DE0118966DD0ED91FD91FA93EA931A939D
:1006D0000A93EFE1F2E0FA93EA93DE011896BCDEAA
:1006E000198108812896FF900895BA93AA93A99139
:1006F000B991EE27FF276D91662311F03196FBCF5C
:100700000895BA93AA93AA27BB27E991F991059076
:10071000002011F01196FBCFFD010895EA93FA93A2
:10072000EFB7EA930895E0E0E0938500E09384005A
:100730000895E1E0E0938900E6E80895AA931A930A
:10074000E981EF701E2FE8B108952A93AD85BE852B
:10075000EF85F88909950895E889F9893497E88B38
:10076000F98B0895AD85BE85EF85F88909950895C3
:10077000A889B9891496ED91FD91EE83FF83AE812E
:10078000BF8108955A934A933A932A931A930A93EE
:1007900008955D814C813B812A81198108810895EA
:1007A0000024AF0DB01D0895F195E195F040089536
:1007B000002498E0AA0F001C0E1A10F40E0E01C0BF
:1007C000A1609A95B9F7EA2FA02D0895F1DFEA2FDD
:1007D0000895ED91FC91119708950590F491E02D05
:1007E00008957A936A93FA93EA930895109639F0EC
:1007F000A89588E893E10197F1F71197C9F7089553
:00000001FF
