:0A0000000C9451000C9400000C94C5
:10000A0000000C9400000C9400000C9400000C9466
:10001A0000000C9400000C9400000C9400000C9456
:10002A0000000C9400000C9400000C94BD000C9489
:10003A0000000C9400000C9400000C9400000C9436
:10004A0000000C9400000C948B000C9400000C949B
:10005A00A8000C9400000C9400000C9400000C946E
:10006A0000000C9400000C9400000C9400000C9406
:10007A0000001027E80364000A00010000100001D4
:10008A001000010001002D4E414E00494E4600006D
:10009A00010010028E000000F894EE27EFBBF1E099
:1000AA00F5BFE5BFF8E1A895A4B7A77FA4BFF09371
:1000BA006000E09360008DE0A2E0BB27ED938A9593
:1000CA00E9F780E094E0A0E0B1E0ED930197E9F769
:1000DA00EAE9F0E085919591009761F0A591B591D3
:1000EA0005901590BF01F00105900D920197E1F777
:1000FA00FB01F0CFE0E0EEBBEABDEBBDEFEFEDBFF9
:10010A00E4E0EEBFC0E0D2E00C94E50022D11A93FD
:10011A000A931091C0000091C600E12FEC7181F49E
:10012A00E32D3394F0E0E050FE4F0083E8E0E3155E
:10013A0009F433245394E8E0E51511F45524F09AB0
:10014A000991199110C005D1882069F08A94E92D86
:10015A009394F0E0E85FFD4FE081E093C600E8E0A9
:10016A00E91509F49924E991EFBFF991E9911895F4
:10017A000A921A92FA926A937A938A939A93AA9310
:10018A00BA93EA93FA93EFB7EA93A42DAF5FE2E347
:10019A0004D14E2E442029F45E9B02C05E9801C011
:1001AA005E9A13D0E991EFBFF991E991B991A991BA
:1001BA009991899179916991F99019900990189575
:1001CA005CD078945E9AFFCFFFCF0BD07E2EEFEFF4
:1001DA00E71511F0A72D3CD04AD07E2EA72D40D08E
:1001EA0008952497EEEFE883EDEFE983EBEFEA83D6
:1001FA00E7EFEB83BAD03FEF10E014302CF5E12F94
:10020A00F0E0DE011496AE0FBF1FEC91E2B987E071
:10021A008A95F1F7E0B1E295EF700E2F0F3091F069
:10022A000E3009F400E00D3009F401E00B3009F456
:10023A0002E0073009F403E0E12FEE0FEE0FE00FC2
:10024A003E2F02C01F5FD9CFE32F94D0289608957E
:10025A0085D0EF70AE2FE12FE295E07FEA2B03C045
:10026A007DD0E07FE12BE8B91881229608951A9390
:10027A00E3B1EF701E2F19910895E0E8E093610051
:10028A00E0E0E0936100EFE0E1B9EFEFE2B9E0E02E
:10029A00E5B9E4B9EFEFE7B9E0E0E8B9E0E2EBB9D4
:1002AA00E0E5EAB9E0E0E4BDE5BDE6BDE7BDE8BDED
:1002BA00E0938000EDE0E0938100E0E0E0938500C8
:1002CA00E0938400E0938700E0938600E1E0E09306
:1002DA008900E6E8E0938800E0E0E0938B00E09391
:1002EA008A00E093B600E093B000E093B100E09397
:1002FA00B200E093B300E093B400E0936900EDBB71
:10030A00E0936800E0936E00E2E0E0936F00E0E0C3
:10031A00E0937000E093C000E8EDE093C100E6E0EE
:10032A00E093C200E0E0E093C500E1E8E093C40096
:10033A00E0E0E093C900E0E8E0BFE0E0E0937B00A2
:10034A00E0937F00E5B7E068E5BFE5B7E068E5BFA1
:10035A000895EA93FA93EFB7EA930895AA931A9342
:10036A00E981EF701E2FE8B108953A932A931A9300
:10037A000A9308953B812A811981088108950024EE
:10038A0098E0AA0F001C0E1A10F40E0E01C0A1600C
:10039A009A95B9F7EA2FA02D0895F1DFEA2F08956B
:00000001FF
