:0A0000000C94BA000C9400000C945C
:10000A0000000C9400000C9400000C9400000C9466
:10001A0000000C9400000C9400000C9400000C9456
:10002A0000000C9400000C9400000C9400000C9446
:10003A0000000C9400000C9400000C9400000C9436
:10004A00E9000C9400000C9400000C9400000C943D
:10005A0000000C9400000C9400000C9400000C9416
:10006A0000000C9400000C9400000C9400000C9406
:10007A000000C0F9A4B0999282F8809000000300B1
:10008A000C002D001500000008000100000000000F
:10009A000800010000000000080001000000000044
:1000AA00000001000000000008000100000000003C
:1000BA000010000010000200000000001000020002
:1000CA000000000010000200000000001000020002
:1000DA0000000000100002000000000000100100F3
:1000EA000000000100000000000000020000000003
:1000FA0000000003000000000000000400000000EF
:10010A0000000005030000000000001002000000CB
:10011A0000000000000000000010030000010203BC
:10012A00000230026002900200103070F0000102FA
:10013A0003000A00030086002C00000290002D0034
:10014A003002BC002D006002EA000D009002180186
:10015A000400A00226010800A4022A010500BF0229
:10016A0032010300C40238010000F894EE27EFBB05
:10017A00F1E0F5BFE5BF8DE0A2E0BB27ED938A95DC
:10018A00E9F780E094E0A0E0B1E0ED930197E9F7A8
:10019A00ECE3F1E085919591009761F0A591B59115
:1001AA0005901590BF01F00105900D920197E1F7B6
:1001BA00FB01F0CFE0E0EEBBEFEFEDBFE4E0EEBF16
:1001CA00C0E0D2E00C9411010A921A92FA926A9350
:1001DA007A938A939A93AA93BA93EA93FA93EFB784
:1001EA00EA93ECE3E6BDEBB1E072F0E0F595E79552
:1001FA007BD2E093BD0286D1B8D07DD0E991EFBF22
:10020A00F991E991B991A991999189917991699114
:10021A00F990199009901895E0E8E0936100E0E000
:10022A00E0936100E0E8E1B9EFEFE2B9E4B9E5B9DA
:10023A00E7B9E8B9EFE2EAB9EBB9E0E0E4BDE5E035
:10024A00E5BDECE3E6BDE0E0E7BDE8BDE093800094
:10025A00E0938100E0938500E0938400E0938700B7
:10026A00E0938600E0938900E0938800E0938B0096
:10027A00E0938A00E093B600E093B000E093B10007
:10028A00E093B200E093B300E093B400E1E0E093BE
:10029A006E00E0E0E0936F00E0937000E093690085
:1002AA00EDBBE0936800E093C100E093C900E0E889
:1002BA00E0BFE0E0E0937B00E0937F00E0937A0008
:1002CA00ECBDE093BC00789406D06AD0E5B1E0704A
:1002DA00E5B9FBCFFFCFE0E0E093AC02E093B002D8
:1002EA00DE2E4E2EE093AF02E093AE02EFEFE8B9B6
:1002FA00EBB9E5B90895E6E0E093BE02ED2DF0E032
:10030A00309799F4E091AD02E03071F0E091C802C3
:10031A00EF5FE093C8025F98A091C802A13011F480
:10032A00E1E001C0E0E0DE2E1FC0E130A0E0FA0704
:10033A00D9F4E091AD02E095E030B1F09BD0E091C4
:10034A00AE0286D1ED91FD913196FE93EE93E09146
:10035A00B702F091B8023196E093B702F093B8026F
:10036A00DD24E0E0E093C8020895E091AC02F0E0F9
:10037A00309739F4E0E0E093C902E1E0E093AD029E
:10038A000CC0E130A0E0FA0751F4E091C902EF5F36
:10039A00E093C902E0E0E093AD02E093AC02089575
:1003AA001A93E091AF0254D1EC911E2FA12FB0E025
:1003BA00E8EEF3E0BBD1E093B902A12FBB27E8EE48
:1003CA00F3E0B9D11E2FE4E0EA93A091B9022BD051
:1003DA00A12FB0E0E4E6F0E0A9D1E093BA02A12FA0
:1003EA00BB27E4E6F0E0A7D11E2FE3E0EA93A09151
:1003FA00BA0219D0A12FB0E0EAE0F0E097D1E09379
:10040A00BB02E2E0EA93A091BB020DD0A12FBB2769
:10041A00EAE0F0E090D1E093BC02E1E0EA93A09137
:10042A00BC0201D013C143D10A2F3C811FEFE32F35
:10043A00F0E0E430A0E0FA0711F4187F11C0E330CD
:10044A00A0E0FA0711F4147F0BC0E230A0E0FA072B
:10045A0011F4127F05C0E130A0E0FA0709F4117F18
:10046A001BB9E02FF0E0E458FF4F049008B826D1FA
:10047A00259608952297E0E0E883E98316D1252D91
:10048A00362DE091AE02A4EAB2E0F0E0EE0FFF1FD3
:10049A00AE0FBF1FED91FC911197AF0100E0003044
:1004AA0041F5DED0D9018B2F880F880B982FEA17D8
:1004BA00FB076807790761F4EE81FF813196DA015B
:1004CA000ED1AE0FBF1FEC91E093AE0201E010C057
:1004DA00C7D0E030A0E0FA07A0E06A07A0E17A07F7
:1004EA0011F401E005C0EE81FF813296EE83FF83AD
:1004FA00D6CFE091AE02F0E0E056FD4F1081DCD09D
:10050A00289608952ED001D008951A93E091BE023C
:10051A00E03019F41091BF021DC0ADD0E0E0F0E068
:10052A0060E270E465D118F41091C00213C0A09182
:10053A00BE02A53018F41091C1020CC09CD0E0E0B4
:10054A00F0E060EF70E454D118F41091C20202C0D6
:10055A001091C302E5B1EF70E5B9E5B1E12BE5B958
:10056A0075C01A93E091B002F0E0309749F4E09137
:10057A00BD02E03019F4E1E0E093B00285D066C034
:10058A00E130A0E0FA0761F4E091BD02E03031F019
:10059A00E2E0E093B002E1E0E093AF0275D056C02A
:1005AA00E230A0E0FA0749F4E091BD02E03019F424
:1005BA00E3E0E093B00268D049C0E330A0E0FA0774
:1005CA0061F4E091BD02E03031F0E4E0E093B00282
:1005DA00E2E0E093AF0258D039C0E430A0E0FA0775
:1005EA0049F4E091BD02E03019F4E5E0E093B0028D
:1005FA004BD02CC0E530A0E0FA0761F4E091BD02CF
:10060A00E03031F0E6E0E093B002E3E0E093AF02DD
:10061A003BD01CC0E630A0E0FA0749F4E091BD02E5
:10062A00E03019F4E7E0E093B0022ED00FC0E730D3
:10063A00A0E0FA0759F4E091BD02E03031F0E8E0B9
:10064A00E093B002E0E0E093AF021ED01991089562
:10065A00A1EBB2E0F0E0EE0FFF1FAE0FBF1F08954F
:10066A00EE81FF81DA013BD0AE0FBF1FED91FD9104
:10067A006D917D910895E091BE02FF276627772745
:10068A008AD0DF01CB010895E091AF02F0E0EC538C
:10069A00FD4FA081E091AE02F0E0EC53FD4FE08106
:1006AA00EE0FEE0FEA2B1E2F08955A934A933A93B0
:1006BA002A931A930A9308955D814C813B812A817A
:1006CA00198108810895F195E195F0400895F09512
:1006DA0060957095E195FF4F6F4F7F4F0895EE0F2C
:1006EA00FF1FEE0FFF1F0895F595E795F595E7951E
:1006FA00F595E795F595E7950895FE2FFF0FFF0B02
:10070A006F2F7F2F08950024112490E1AA0FBB1F99
:10071A00001C111C0E1A1F0A18F40E0E1F1E01C00F
:10072A00A1609A9599F7FD01D001089512D0EBDFE7
:10073A000EF4C9DF0895E894B7FF04C0B195A195F6
:10074A00B0406894F7FDBFDFDEDFFD010EF4BBDFCA
:10075A000895E894F7FF02C0B6DF6894B7FF06C0B1
:10076A00B195A195B04000F8039400FA089550E8B5
:10077A00572711F45F932BC05F3F31F0660F000CCF
:10078A0057956795752F08955F9300200AF02AC040
:10079A0023C0689401C0E894309760407040B1F07B
:1007AA00002426F0772312F4009491DF172E7EE1BD
:1007BA00112032F07A95EE0FFF1F661F111CF9CF38
:1007CA00EF2FF62F612D5F93D2DF5F910895EE2709
:1007DA00FF27BF015F910895EFEFFFEF6FE77FEF0C
:1007EA005F910895EFEFFFEF6FE77FE75F9108955D
:1007FA0099239AF0772342F0971748F029F4AE1715
:10080A00BF07860720F031F0989488940895989449
:10081A00089408951894889408957723C2F797172F
:10082A0098F3A9F7EA17FB07680788F399F3ECCF5F
:00000001FF
