:040000000C94AD00AF
:100004000C9400000C9400000C9400000C9400006C
:100014000C9400000C9400000C9400000C9400005C
:100024000C9400000C9400000C9400000C9400004C
:100034000C9400000C9400000C9400000C9400003C
:100044000C9400000C94DC000C9400000C94000050
:100054000C9400000C9400000C9400000C9400001C
:100064000C9400000C9400000C9400000C9400000C
:100074000C9400000C940000C0F9A4B0999282F88A
:100084008090000000000000000008000100000053
:10009400000008000100000000000800010000004A
:1000A4000000000001000000000008000100000042
:1000B400000000100000100002000000000010000A
:1000C4000200000000001000020000000000100008
:1000D40002000000000010000200000000000010F8
:1000E4000100000000010000000000000002000008
:1000F40000000000000300000000000000040000F5
:1001040000000000000503000000000000100200D1
:1001140000000000000000000000001003000001C7
:10012400020300023002600290020600030086000F
:100134002C0000028C002D003002B8002D0060025B
:10014400E6000D00900214010400A0022201080040
:10015400A40226010000F894EE27EFBBF1E0F5BFFE
:10016400E5BF8DE0A2E0BB27ED938A95E9F780E037
:1001740094E0A0E0B1E0ED930197E9F7EEE2F1E05D
:1001840085919591009761F0A591B5910590159091
:10019400BF01F00105900D920197E1F7FB01F0CF4B
:1001A400E0E0EEBBEFEFEDBFE4E0EEBFC0E0D2E095
:1001B4000C9403010A921A92FA926A937A938A939C
:1001C4009A93AA93BA93EA93FA93EFB7EA93ECE378
:1001D400E6BDEBB1E072F0E0F595E795ACD1E093C4
:1001E400B9029FD075D0E991EFBFF991E991B99126
:1001F400A9919991899179916991F99019900990AE
:100204001895E0E8E0936100E0E0E0936100E0E845
:10021400E1B9EFEFE2B9E4B9E5B9E7B9E8B9EFE379
:10022400EAB9EBB9E0E0E4BDE5E0E5BDECE3E6BD49
:10023400E0E0E7BDE8BDE0938000E0938100E09357
:100244008500E0938400E0938700E0938600E093C8
:100254008900E0938800E0938B00E0938A00E093A8
:10026400B600E093B000E093B100E093B200E093F5
:10027400B300E093B400E1E0E0936E00E0E0E093CB
:100284006F00E0937000E0936900EDBBE0936800B9
:10029400E093C100E093C900E0E8E0BFE0E0E09350
:1002A4007B00E0937F00E0937A00ECBDE093BC0018
:1002B400789403D051D0FECFFFCFE0E0CE2EDE2ED7
:1002C4009E2E4E2EEE2EEFEFE8B9EBB9E5B9089568
:1002D400E92DF0E0309789F4BB2071F0E091BA0287
:1002E400EF5FE093BA025F98A091BA02A13011F4D3
:1002F400E1E001C0E0E09E2E13C0E130A0E0FA0787
:1003040079F4EB2DE095E03059F097D0E9D0ED91F8
:10031400FD913196FE93EE939924E0E0E093BA02C6
:100324000895EC2DF0E0309739F4E0E0E093BB025F
:10033400E1E0BE2ECE2E0FC0E130A0E0FA0759F462
:10034400E091BB02EF5FE093BB02BB24A091BB0230
:10035400A13309F4CC2408951A93E1E0E093B9029F
:10036400E03019F4E091B40202C0BAD0EC911E2F2F
:10037400A12FB0E0E8EEF3E0FAD0E093B502A12FAC
:10038400BB27E8EEF3E0F8D01E2FE4E0EA93A09157
:10039400B5022CD0A12FB0E0E4E6F0E0E8D0E09381
:1003A400B602A12FBB27E4E6F0E0E6D01E2FE3E07F
:1003B400EA93A091B6021AD0A12FB0E0EAE0F0E0EF
:1003C400D6D0E093B702E2E0EA93A091B7020ED050
:1003D400A12FBB27EAE0F0E0CFD0E093B802E1E040
:1003E400EA93A091B80202D0199108958FD00A2FF0
:1003F4003C811FEFE32FF0E0E430A0E0FA0711F4B2
:10040400187F11C0E330A0E0FA0711F4147F0BC089
:10041400E230A0E0FA0711F4127F05C0E130A0E059
:10042400FA0709F4117F1BB9E02FF0E0E458FF4FFD
:10043400049008B872D0259608952297E0E0E883E6
:10044400E98362D0E62DF0E0E32DF0E0E0E0F0E0B7
:10045400DF01F52DE0E0EA2BFB2BDF01E82DF0E0D6
:10046400EA2BFB2B9F01EE2DA4EAB2E0F0E0EE0FA5
:10047400FF1FAE0FBF1FED91FC911197AF0100E07C
:10048400003031F536D0D9018B2F880F880B982F87
:10049400EA17FB076807790751F4EE81FF8131966B
:1004A400DA0144D0AE0FBF1FEC9001E010C021D0A0
:1004B400E530A0E0FA07A0E06A07A0E07A0711F4AB
:1004C40001E005C0EE81FF813296EE83FF83D8CF31
:1004D400EE2DF0E0E056FD4F10811DD028960895D2
:1004E400EE2DACEAB2E0F0E0EE0FFF1FAE0FBF1F3F
:1004F4000895EE81FF81DA0119D0AE0FBF1FED918F
:10050400FD916D917D9108955A934A933A932A935C
:100514001A930A9308955D814C813B812A81198144
:1005240008810895F195E195F0400895EE0FFF1FBD
:10053400EE0FFF1F0895F595E795F595E795F59569
:10054400E795F595E79508950024112490E1AA0F05
:10055400BB1F001C111C0E1A1F0A18F40E0E1F1EBE
:1005640001C0A1609A9599F7FD01D001089512D0B8
:10057400EBDF0EF4D7DF0895E894B7FF04C0B1951C
:10058400A195B0406894F7FDCDDFDEDFFD010EF4E8
:10059400C9DF0895E894F7FF02C0C4DF6894B7FF89
:1005A40006C0B195A195B04000F8039400FA0895EF
:00000001FF
