:040000000C94C1009B
:100004000C9400000C9400000C9400000C9400006C
:100014000C9400000C9400000C9400000C9400005C
:100024000C9400000C9400000C9400000C9400004C
:100034000C9400000C9400000C9400000C9400003C
:100044000C9400000C94F0000C9400000C9400003C
:100054000C9400000C9400000C9400000C9400001C
:100064000C9400000C9400000C9400000C9400000C
:100074000C9400000C940000C0F9A4B0999282F88A
:100084008090000000000000000000000000080054
:10009400010000000000080001000000000008004A
:1000A400010000000000080001000000000008003A
:1000B4000100000000000010000010000200000019
:1000C4000000100002000000000010000200000008
:1000D40000001000020000000000100002000000F8
:1000E40000000010010000000001000000000000FA
:1000F40000020000000000000003000000000000F7
:1001040000040000000000000005030000000000DF
:1001140000100200000000000000000000000010B9
:1001240003000001020300023002600290020A0090
:1001340015002200640000103070F000010203007A
:100144000900030086002C00000290002D003002FC
:10015400BC002D006002EA000D00900218010400AA
:10016400A00226010800A4022A010700BC023201F1
:100174000500C9023A010300CE0240010000F894D0
:10018400EE27EFBBF1E0F5BFE5BF8DE0A2E0BB27B2
:10019400ED938A95E9F780E094E0A0E0B1E0ED9377
:1001A4000197E9F7E4E4F1E085919591009761F016
:1001B400A591B59105901590BF01F00105900D92A0
:1001C4000197E1F7FB01F0CFE0E0EEBBEFEFEDBF0D
:1001D400E4E0EEBFC0E0D2E00C941B010A921A9254
:1001E400FA926A937A938A939A93AA93BA93EA9324
:1001F400FA93EFB7EA93ECE3E6BDE9B1E078F0E017
:10020400ABD2A8D2E093C602E03011F4E0E0E5B945
:10021400A6D1ACD073D0E991EFBFF991E991B9912E
:10022400A9919991899179916991F990199009907D
:100234001895E0E8E0936100E0E0E0936100E0E815
:10024400E1B9EFEFE2B9E4B9E5B9E7B9E8B9EFE04C
:10025400EAB9EFEFEBB9E0E0E4BDE5E0E5BDECE3DE
:10026400E6BDE0E0E7BDE8BDE0938000E0938100F7
:10027400E0938500E0938400E0938700E093860098
:10028400E0938900E0938800E0938B00E0938A0078
:10029400E093B600E093B000E093B100E093B200C5
:1002A400E093B300E093B400E1E0E0936E00E0E09B
:1002B400E0936F00E0937000E0936900EDBBE0937E
:1002C4006800E093C100E093C900E0E8E0BFE0E02B
:1002D400E0937B00E0937F00E0937A00ECBDE09331
:1002E400BC00789403D05DD0FECFFFCFE0E08E2E2B
:1002F400CE2E5E2E4E2E9E2EAE2E0895E6E0F0E01B
:10030400E093C702F093C802E52DF0E0309781F442
:10031400772069F0E091D202EF5FE093D202A091DE
:10032400D202A13011F4E1E001C0E0E05E2E1DC074
:10033400E130A0E0FA07C9F4E72DE095E030A9F038
:1003440099D0EA2DACD1ED91FD913196FE93EE93C7
:10035400E091C202F091C3023196E093C202F0939D
:10036400C3025524E0E0E093D2020895E82DF0E0C2
:10037400309739F4E0E0E093D302E1E07E2E8E2E54
:100384000FC0E130A0E0FA0759F4E091D302EF5F27
:10039400E093D3027724A091D302A13309F48824F3
:1003A40008951A93E92D7BD1EC911E2FA12FB0E073
:1003B400E8EEF3E0EBD1EE2EA12FBB27E8EEF3E05D
:1003C400EAD11E2FE4E0EA93AE2D29D0A12FB0E0AC
:1003D400E4E6F0E0DBD1DE2EA12FBB27E4E6F0E07B
:1003E400DAD11E2FE3E0EA93AD2D19D0A12FB0E0AE
:1003F400EAE0F0E0CBD1E093C402E2E0EA93A0911A
:10040400C4020DD0A12FBB27EAE0F0E0C4D1E093F1
:10041400C502E1E0EA93A091C50201D03EC166D1D4
:100424000A2F3C81E32FF0E0E430A0E0FA0711F456
:1004340018E011C0E330A0E0FA0711F414E00BC097
:10044400E230A0E0FA0711F412E005C0E130A0E0C8
:10045400FA0709F411E0EBB1E07FEBB9EBB1E12B62
:10046400EBB9E02FF0E0E458FF4F049008B845D111
:1004740025960895249738D1A091AC02B091AD028D
:100484008091AE029091AF02E8E148D1DF01CB0147
:10049400E091B002F091B1026091B2027091B302A6
:1004A4006E2F7F2FE0E0F0E002D17F936F93FF93F4
:1004B400EF93A091B402B091B5028091B6029091ED
:1004C400B702E8E02BD1AF91BF918F919F91EFD00C
:1004D400A091B802B091B9028091BA029091BB0286
:1004E400E6D0EE83FF8368877987EA2DA4EAB2E039
:1004F400F0E0EE0FFF1FAE0FBF1FED91FC911197BF
:100504009F0100E040E050E0003009F5D5D0AE8115
:10051400BF8188859985EA17FB076807790749F43D
:10052400FA013196D90111D1AE0FBF1FAC9001E091
:100534000DC0C2D0E030A0E0FA07A0E06A07A0E155
:100544007A0711F401E002C04E5F5F4FDDCFEA2D60
:10055400F0E0E056FD4F1081CED02A9608952BD0BE
:1005640001D008951A93B2D0309719F41091C902AA
:100574001FC0B1D0E0E0F0E060E270E469D118F4AB
:100584001091CA0215C0A091C702B091C802159774
:100594001CF41091CB020CC09ED0E0E0F0E060EFC0
:1005A40070E456D118F41091CC0202C01091CD021F
:1005B400E5B1EF706EC01A93EC2DF0E0309739F48A
:1005C400E091C602E03011F4E1E0CE2E52C0E130F9
:1005D400A0E0FA0749F4E091C602E03021F0E2E03D
:1005E400CE2EE1E09E2E45C0E230A0E0FA0739F4B9
:1005F400E091C602E03011F4E3E0CE2E3AC0E330DD
:10060400A0E0FA0749F4E091C602E03021F0E4E00A
:10061400CE2EE2E09E2E2DC0E430A0E0FA0739F49D
:10062400E091C602E03011F4E5E0CE2E22C0E530C0
:10063400A0E0FA0749F4E091C602E03021F0E6E0D8
:10064400CE2EE3E09E2E15C0E630A0E0FA0739F482
:10065400E091C602E03011F4E7E0CE2E0AC0E730A4
:10066400A0E0FA0731F4E091C602E03011F0CC24A6
:100674009924E92DF0E0E253FD4FA081EA2DF0E04A
:10068400E253FD4FE081EE0FEE0FEA2B1E2FE5B192
:10069400E07FE5B9E5B1E12BE5B919910895ACEB3B
:1006A400B2E0F0E0EE0FFF1FAE0FBF1F0895EA2B7C
:1006B400FB2B682B792B0895FA01D90146D0AE0F94
:1006C400BF1FED91FD916D917D910895E091C70259
:1006D400F091C8020895FADF6F2F660F660B762F2C
:1006E4008AD0DF01CB0108955A934A933A932A930F
:1006F4001A930A9308955D814C813B812A81198163
:1007040008810895F195E195F0400895F09560957C
:100714007095E195FF4F6F4F7F4F0895EE230E2E96
:10072400E8E01E2EFD01BC0179F0011438F0762FAB
:100734006F2FFE2FE0E00118C1F70895EE0FFF1FA1
:10074400661F771F0A94D1F70895EE0FFF1FEE0F6F
:10075400FF1F0895F595E795F595E795F595E795C8
:10076400F595E79508950024112490E1AA0FBB1F85
:10077400001C111C0E1A1F0A18F40E0E1F1E01C0B5
:10078400A1609A9599F7FD01D001089512D0EBDF8D
:100794000EF4B8DF0895E894B7FF04C0B195A195AD
:1007A400B0406894F7FDAEDFDEDFFD010EF4AADF92
:1007B4000895E894F7FF02C0A5DF6894B7FF06C068
:1007C400B195A195B04000F8039400FA089550E85B
:1007D400572711F45F932BC05F3F31F0660F000C75
:1007E40057956795752F08955F9300200AF02AC0E6
:1007F40023C0689401C0E894309760407040B1F021
:10080400002426F0772312F4009480DF172E7EE173
:10081400112032F07A95EE0FFF1F661F111CF9CFDD
:10082400EF2FF62F612D5F93D2DF5F910895EE27AE
:10083400FF27BF015F910895EFEFFFEF6FE77FEFB1
:100844005F910895EFEFFFEF6FE77FE75F91089502
:1008540099239AF0772342F0971748F029F4AE17BA
:10086400BF07860720F031F09894889408959894EF
:10087400089408951894889408957723C2F79717D5
:1008840098F3A9F7EA17FB07680788F399F3ECCF05
:00000001FF
